:020000040800F2
:1000000000240020E9400008ED3E0008EF3E000813
:10001000F13E0008F33E0008F53E00080000000035
:10002000000000000000000000000000F73E000893
:10003000F93E000800000000FB3E0008FD3E0008FD
:100040000D41000811410008154100081941000840
:100050001D410008214100082541000829410008F0
:100060002D41000831410008354100080B3F0008D0
:10007000394100083D410008113F0008173F0008C2
:1000800041410008454100081D3F00084941000862
:10009000233F00084D410008514100085541000828
:1000A000594100085D4100086141000865410008B0
:1000B000694100086D410008293F000871410008AE
:1000C00075410008794100087D4100088141000820
:1000D000854100082F3F0008894100088D41000834
:1000E0009141000895410008994100089D41000890
:1000F000A1410008A5410008A9410008AD41000840
:10010000B1410008B5410008433F0008B94100086B
:10011000BD410008C1410008C5410008C9410008AF
:10012000CD410008D1410008D5410008D94100085F
:1001300078B585B0044600260CB9012046E004F5E8
:100140008565687818B92E70204600F087FB03207B
:100150006870206800F0C9FC83B000F039F80EBC6C
:10016000206800F0BBFC2068002100F0C3FC04EB19
:10017000461028300121067086814170761C0021CE
:100180000F2EC170016141618161F0D30020002315
:1001900004EB401101F50A72537010708886D37019
:1001A000401C0F28136153619361F1D383B000F0B9
:1001B0000FF80EBC206800F09FFC002084F824009B
:1001C00001206870206800F06AFF002006B070BD52
:1001D000211D6846202200F093BF10B500F09EF864
:1001E00001D1022010BD00F08FF8206800F055FF0B
:1001F000206800F075FC8DE010B5044600F081F831
:10020000010444BF204600F05AF900F07AF8400596
:100210000CD500F072F84FF6FF3000F06AF8204677
:1002200000F046FB0021204600F07DF800F069F860
:10023000400405D500F061F84BF6FF7000F059F866
:1002400000F05FF8800405D500F057F84DF6FF7018
:1002500000F04FF800F055F8C00417D52168B1F848
:1002600040204FF6FB700240A1F840204FF6F77097
:10027000B1F840200240A1F84020204600F033FBB6
:1002800000F03BF84EF6FF7000F033F800F039F85C
:10029000000516D5206800F14002118841F00801E0
:1002A00011804FF2FF7193880B409380118841F0C9
:1002B0000401118000F0F5FEC0045CBF204600F090
:1002C00004FB00F01EF8800508D500F016F84FF684
:1002D000FF5000F00EF8204600F0E6FA00F011F8AA
:1002E000C00505D500F009F84FF6FF6000F001F8F1
:1002F00010BD0240A1F8442070472168B1F84420A5
:100300007047206800F0CDBE012184F828142046F3
:1003100000F0BBBB002084F8280410BD044694F80C
:1003200028040128704710B5FFF7F8FF01D102201B
:1003300010BD012284F8282484F82410206800F0DD
:10034000A6FEE7E738B500F035F80D064CBF2830BB
:1003500000F50A7001F07F050570C909417002615E
:10036000C37094F82814012901D1022032BD00F095
:100370001BF800F0D1FB9EE010B500F01BF80A0658
:100380004CBF283000F50A7001F07F020270C909E5
:10039000417094F82814012901D1022010BD00F009
:1003A00003F800F0D3FCB5E7012284F828240146C5
:1003B00020687047044601F07F0004EB401070474E
:1003C00038B501F07F0400EB441505F50A7400F020
:1003D0001DF86270217013E001F00F0100EB411075
:1003E000D0F8440280B2704738B501F07F0400EBCA
:1003F000441505F1280400F009F82170012262700B
:100400002146006800F021FD002032BD01F07F018F
:100410006261A3610022E261704738B505460C466F
:100420002106204606D500F07F0105EB411202F1BE
:10043000280103E005EB441303F50A7101228A70D9
:1004400004F07F040C70C009487095F82804012856
:1004500001D1022032BD85F82824286800F0BAFDB9
:1004600024B9286805F22C4100F01EFE002085F812
:10047000280432BD38B5044608060A4606D502F0FF
:100480007F0004EB401303F1280003E004EB411567
:1004900005F50A700023837001F07F010170D20915
:1004A000427094F82814012901D1022032BDFFF7CF
:1004B0007BFF00F0B4FD002084F8280432BD2DE954
:1004C000F84F0021ADF80010ADF8001000F50A78E3
:1004D000064626E001880AEA0101018006F12404AB
:1004E0003068B0F85010227901EBC20100EB4100F6
:1004F00000F204400068A169C0F3090020620844CA
:10050000A0610021304600F0C8F9217849B1E069C6
:1005100038B92178306841F08001A0F84C100021F2
:100520002170306800F144010A88ADF800201204FF
:1005300040F13681BDF8004014F00F0440F68F778B
:1005400048F60F7A6BD1BDF80020D306C2D50388D8
:10055000ADF80030BDF80020130514D5898900F0EE
:1005600036F9B8F80420C3F30903C8F81C3006F2C2
:100570002C4100F0B6FD306801880F4007803046FE
:1005800000F07DF9CDE7BDF800100A04C9D5028856
:10059000174007803068B0F8501000F018F9C3F326
:1005A0000903002BC8F81C300CD0B8F80420D8F888
:1005B000141000F096FDD8F81400D8F81C10084468
:1005C000C8F814000021304600F05FF93068B0F838
:1005D000501000EB4100D8F810103F2900F20C40F9
:1005E00009D34A0911F01F0F08BF521E920242F4AC
:1005F000004292B205E04A08C90748BF521C920661
:10060000120C02604BF68F7230680188114081F441
:10061000405141F4004141F08001018081E730F810
:100620002410ADF8001006EB4415BDF800100A04C4
:1006300048F68F7957D530F824100F4020F82470F1
:1006400005F50A77306897F800C0B97A61B9B0F853
:10065000501001EBCC0200F0B0F82FD0BA887969C5
:100660005B4600F03EFD29E030F82C104904B0F85C
:1006700050100DD511EBCC0200EB420303F2044302
:100680001968C1F3090BBBF1000F0BD0FA8805E024
:1006900011EBCC0200F091F804D03A895B467969FD
:1006A00000F01FFD3168387831F8202009EA020295
:1006B00042F4004242F0C00221F82020F969594476
:1006C000F961796901EB0B027A61BB6913B1396990
:1006D0008B4504D23978304600F0D7F803E03978FA
:1006E0003046FFF76DFEBDF80000010654D53068B6
:1006F00030F824100AEA010120F8241015F8281F08
:100700003368A87ACA0058B9B3F85010521800F0EC
:100710004AF82AD0AA886969306800F0D0FC24E041
:1007200033F821004106B3F8500005D5121800F047
:100730003AF80ED0EA8808E0121803EB420404F2FB
:100740000C4400F034F804D02A896969306800F05C
:10075000B6FC3168287831F8202009EA020242F418
:10076000404242F0800221F8202030682978B0F819
:10077000502002EBC10200EB420000F2044000688E
:10078000C0F30900E8616A6902446A613046AB69F6
:10079000002B02D100F081F8C3E6FFF725FEC0E68A
:1007A0000020BDE8F28F03EB420404F20444236806
:1007B000C3F30903002BEB61704700EB420303F224
:1007C0000C431968C1F3090BBBF1000F704798F88F
:1007D000002001EBC20100EB410101F20C410B686A
:1007E0007047F0B40246106895681318506803EB20
:1007F0005004C00721D54D441FE0F0BC02F10C00AD
:10080000704713F8017B05F8017B491EF9D1A0B1AF
:10081000B60813F8011B06F00306032E08BF13F8F1
:10082000016B01EB06214942801C294405D011F8D7
:10083000016B05F8016B401EF9D1A342DDD013F81E
:10084000016B16F0030104BF13F8011BC91C30092A
:100850000F28DAD113F8010B0F30D6E781B000680A
:100860008449884209D18448016841F4000101604B
:10087000006800F400000090009801B0704700F29A
:100880002C41D0F85C0400F0AEBC00EB4112D0F873
:100890005C04D2F83C2200F0D1BC00EB4112D0F84D
:1008A0005C04D26B00F0FBBCD0F85C0400F070BDBF
:1008B00010B504460121D4F85C0400F05AFDD4F8C8
:1008C0005C04BDE8104000F034BD10B50446D4F817
:1008D0005C0400F051FDA06920B16848016841F056
:1008E0000601016010BDD0F85C0400F04BBD10B5EE
:1008F000044663485F49C0F85C44C4F820020160C4
:1009000008214160022181600321C16000218161D1
:10091000C1610162FFF70CFC28B14FF48C710FF23A
:100920006C1000F083FED4F820021823002200216E
:1009300000F07DFED4F8200258230022802100F030
:1009400076FED4F82002C0230022812100F06FFE41
:10095000D4F820024FF488730022012100F067FED2
:10096000D4F820024FF480730022822100F05FFE51
:10097000002010BD10B5D0F82002FFF72EFC002497
:1009800018B102280CBF01240224204610BD38B53E
:100990001C461346D0F820022246FFF7D3FC002560
:1009A00018B102280CBF01250225284632BD10B51A
:1009B000D0F82002FFF7E0FC002418B102280CBF99
:1009C00001240224204610BD10B5D0F82002FFF704
:1009D00024FD002418B102280CBF01240224204663
:1009E00010BD10B5D0F82002FFF744FD002418B167
:1009F00002280CBF01240224204610BD81B0D0F88B
:100A0000200201F07F0200EB421009064CBF90F873
:100A10002A0090F82A0201B0704710B5D0F82002E1
:100A2000FFF781FC002418B102280CBF0124022426
:100A3000204610BD10B5D0F82002FFF7D5FC0024E9
:100A400018B102280CBF01240224204610BD10B5A5
:100A5000D0F82002FFF7B4FC002418B102280CBF24
:100A600001240224204610BDD0F82002FFF7B4BCB8
:100A700004487047005C00401C10024010ED00E08C
:100A800058110020DC17002070477047453A5C552C
:100A9000736572735C31373635375C446F63756DDF
:100AA000656E74735C4769744875625C4D6F746FF2
:100AB00072436F6E746F726C5769746846696C74B8
:100AC00065725C4D43574676312E305C5372635CE1
:100AD000757362645F636F6E662E63000EB417E019
:100AE000B0F8401041F43F41E0E2B0F8402044F259
:100AF000FF21DFE2002070470EB4012120F8401FE3
:100B00000021018081800182018841F43F41018000
:100B1000002003B0704700002DE9F8430A4648F66C
:100B20008F11D378032B16D8DFE803F0020F070AE2
:100B300000F007F941F400710BE000F002F908E061
:100B400000F0FFF841F4C06103E000F0FAF841F46E
:100B5000806120F823101178884630F8286048F624
:100B60008F74264048F280033143194320F828103F
:100B70004BF68F78917A157800294CF2800648F66A
:100B8000BF7748F2C00C55D1918849084FEA410916
:100B900051780029B0F8501001EBC50500EB450174
:100BA00016D001F58061C1F80090117830F821501D
:100BB0006E0606D530F821502C404CEA040420F88B
:100BC0002140117830F82120174087F020077BE082
:100BD00001F58161C1F80090B0F85010177801EB71
:100BE000C70100EB410E11693F290EF20C4E09D3EB
:100BF0004F0911F01F0F08BF7F1EBF0247F40047C7
:100C0000BFB205E04F08C90748BF7F1CBF063F0CB5
:100C1000CEF80070117830F821707D0405D530F8D9
:100C200021703C40344320F8214000F084F882F4E5
:100C300040526EE030F82510214041F4014141F06E
:100C4000800120F8251000F070F8D58800EB4101F4
:100C500001F580616D086D000D6000F066F800EB35
:100C6000410101F58165118949084900296092F81F
:100C700000E0517851BB30F82E50690405D530F8AA
:100C80002E1021400E4320F82E60117830F821609C
:100C9000750606D530F8216026404CEA060620F895
:100CA0002160117830F8216034404CEA040400F0EF
:100CB00036F808EA040484F440541C4320F8214028
:100CC000117830F8212017403B4323E030F82E10F4
:100CD0004D0405D530F82E102140314320F82E1058
:100CE000117830F821506D0606D530F82150254096
:100CF0004CEA050520F82150117830F821502C409D
:100D0000344300F00CF827401F4320F8217000F016
:100D100012F8134320F821300020BDE8F28320F8B8
:100D20002140117830F821407047B0F85010157804
:100D300001EBC5017047117830F8212008EA020262
:100D40007047137830F82340214070472DE9F04177
:100D5000024691F800E048788B7A4BF68F764CF299
:100D6000800848F2800448F6BF7548F2C00C48F687
:100D70008F77BBB9002832F82E0009D0430628D55A
:100D800032F82E0007404CEA070022F82E0020E03F
:100D9000430439D532F82E00074048EA070022F80C
:100DA0002E0031E0002832F82E001AD1430406D577
:100DB00032F82E00384048EA000022F82E0000F0F9
:100DC00033F84CEA070300F029F81E40264322F8C6
:100DD0002060087832F820100D402C4322F8204083
:100DE00019E0430406D532F82E00384048EA0000E6
:100DF00022F82E0000F018F848EA070300F00EF879
:100E00001D40254322F82050087832F820100E406B
:100E1000264322F820600020BDE8F08122F820302F
:100E2000087832F820307047087832F820305B06B6
:100E300006D532F820303B404CEA030322F820303C
:100E4000087832F820301F4070472DE9FC410D46EC
:100E500080466A78A8692969012A074648F280060F
:100E600040D181423ABF0F46C01B0020A861A87A3A
:100E700028B9AA8800F09FF800F0A1F829E02878A6
:100E8000C10038F820004206B8F8500003D500F041
:100E90008BF82A8902E000F087F8EA8800F08BF8E6
:100EA000687848F68F7140B9287838F820201140CA
:100EB00041F4004141F0C00109E0012809D128783E
:100EC00038F82020114041F4404141F0800128F8D9
:100ED0002010297838F8212048F6BF70024082F0AF
:100EE000300255E081423ABF0F46C01B0020A86186
:100EF0007B08A97A4FEA571C07F0010039B9B8F806
:100F00005020297802EBC10208EB42041EE0BAB976
:100F100000F044F808EB41013F2F01F2044109D3EE
:100F2000624617F01F0F08BF521E920242F40042A1
:100F300092B204E01A4600B1521C9206120C0A60EA
:100F40006978C9B900F02AF808EB41043F2F04F290
:100F50000C440BD317F01F0F08BFACF1010C4FEA84
:100F60008C2040F4004080B2206009E000B15B1C9E
:100F70009B061B0C236003E0012901D100F01FF840
:100F80004BF68F70297838F82120024082F44052C5
:100F9000164328F821600020BDE8F681B8F850100B
:100FA0002A7801EBC2017047091808EB410404F2EA
:100FB0000444276070476969BBB240467FE0B8F8D7
:100FC0005000297800EBC10008EB400404F204440F
:100FD0002760704718B50A7848F2800352B9018833
:100FE0004BF6BF72114081F4805181F010010B4328
:100FF000038012E0497830F82240002905D048F6F5
:10100000BF710C4084F0100404E04BF68F710C406B
:1010100084F48054234320F82230002012BD70B5A0
:101020000C784A7848F2800348F68F75AAB130F8F8
:101030002460720608D530F82420154045F4004598
:1010400045F0C00520F824500A7830F8224048F6D0
:10105000BF710C4084F0300414E030F824205604B2
:1010600008D530F82420154045F4404545F080056A
:1010700020F824500A7830F822404BF68F710C404B
:1010800084F44054234320F82230002070BD11B96D
:101090008021A0F84C1000207047002070470020ED
:1010A0007047B0F84400704700207047A0F8401027
:1010B000002070470A40A0F840200020704710B57B
:1010C00000EB42005B1C00F580605B1007E00A78D3
:1010D0004C7842EA0422891C20F8042B5B1EF6D1CE
:1010E00010BD00EB42005B1C00F580605B1004E06B
:1010F00050F8042B21F8022B5B1EF9D17047000039
:10110000103A07D330B4B1E83810103AA0E83810DC
:10111000F9D230BC530724BFB1E80810A0E808108A
:1011200044BF51F8043B40F8043BD20724BF31F8D8
:10113000022B20F8022B44BF0B7803707047121F5C
:1011400017D35B0009D151F8043B20F8023B1B0C7C
:10115000121F20F8023BF6D20BE051F8043B00F8D6
:10116000013B1B0A20F8023B1B0C121F00F8013B3D
:10117000F3D238BF121D521E24BF11F8013B00F8F4
:10118000013BF8D8704738B508B9022032BD00F5E8
:10119000FE74A3690BB10025A56101B16161012154
:1011A00021700270FFF7A3FB002032BD0246002031
:1011B00011B1C2F8141270470220704780B5FFF7D2
:1011C000D9FB002002BD10B5D0F8142202241AB1B8
:1011D0001268904700B90024204610BD80B5D0F8B1
:1011E00014225368E0E038B5044604F50275284639
:1011F00000F0C9FB04F5FA7001210160418B4160E8
:10120000017D11F01F0003D002280BD005D30EE0A2
:101210002946204600F024FA0EE02946204600F038
:10122000B7FA09E02946204600F0CEFA04E001F0C2
:1012300080012046FFF7C8FB002032BD38B50446C8
:1012400010460A0004F5FA731FD11968032924D146
:1012500004F586714A680D68AA420AD2AD1A0D607B
:10126000954238BF2A46014692B2204600F0E7FB7D
:1012700013E0186A016921B1187A032804BF2046D7
:101280008847204600F0E3FB07E0186A826922B134
:10129000187A032804BF20469047002032BD38B595
:1012A000044610460A0004F5FA7538D12968022967
:1012B0002FD1E269216A914207D2521AE2610146B6
:1012C00092B2204600F0A9FB11E0A269B2FBF1F056
:1012D00001FB102090B98A4210D3686882420DD277
:1012E00000220021204600F098FB002068600023C7
:1012F000002200212046FFF7AAFB0AE0286AC16805
:1013000021B1287A032804BF20468847204600F0F0
:10131000A5FB287B01280AD10021297307E0286A50
:10132000426922B1287A032804BF20469047002052
:1013300032BD10B50446402300220021FFF727FBF1
:101340004020C4F810014023002280212046FFF7EE
:101350001EFB4020206204F5FE7201201070D0694F
:1013600028B1926961685368C9B220469847002045
:1013700010BD01740020704700F5FE7001784170C7
:10138000042102E000F5FE704178017000207047F2
:1013900080B500F5FE710A78032A03D18969C9690D
:1013A00001B18847002002BD9847002002BD00001F
:1013B00010B500F05BFB00F072F800F069FB00F084
:1013C000C1FB00F0CFFB00F075FC00F08FFC00F0DB
:1013D00037FD00F0E8FB00220021142000F0F8FDAA
:1013E000142000F012FE00220021252000F0F0FD64
:1013F000252000F00AFE002200210E2000F0E8FD6A
:101400000E2000F002FE002200210F2000F0E0FD7F
:101410000F2000F0FAFD002200211E2000F0D8FD70
:101420001E2000F0F2FD00220021322000F0D0FD4D
:10143000322000F0EAFD002200210B2000F0C8FD60
:101440000B2000F0E2FD7348734C00F026FE734859
:1014500000F023FE00F0CAFF01F040F84FF40072E4
:101460006F49204601F05FF920686E4CC16841F079
:101470001001C160207A012803D101F008F8002191
:10148000217201F069F8607D18B10021617501F0E9
:101490008FF8A07D0028EDD001F0C6F8EAE700B58E
:1014A000002195B001200D910B90022112914FF473
:1014B00080300C90012213904FF480110F92149100
:1014C0000BA801F075FB00B1FEE70F21022000918F
:1014D000019000214FF480600291039004916846CE
:1014E000012101F0F3FC00B1FEE7122005904FF45A
:1014F00080414FF480000A90079105A801F0C8FDD3
:1015000000B1FEE701F08FFD4FF47A71B0FBF1F00E
:1015100000F085FD042000F096FD002200214FF030
:10152000FF3000F055FD15B000BD70B504463948D8
:10153000226801683B4D914252D13B4E4FF400511D
:10154000304601F0E4FE68744FF48051304601F0FB
:10155000DEFEE874687C012804BF297C012910D1D3
:10156000687A401C6872C0B206280DDB0120287022
:1015700000206872E87838B9E970A87000F072FF4E
:1015800002E0002028706872E87C012804BFA97C72
:10159000012911D1A87A401CA872C0B206280EDB1E
:1015A000012068700020A872E878012807D1002186
:1015B000698000F057FF02E000206870A87241F6D1
:1015C0004171687C2874E87CA874288B401C2883AF
:1015D00080B2884204DB002028830120287528720D
:1015E0000E4A24681368688BA98BA3420FD1401C54
:1015F00080B2062802DB012200206A75491C89B2EC
:1016000040F2E932914202DB0121A9750021A98350
:10161000688370BDCC1E00204C1F00200C1F0020D2
:10162000001A0020BC1F0020000C0140FEE710B58E
:101630000C0605D501F07F0100EB4110283003E0D6
:1016400000EB411101F50A7012B98272838004E047
:10165000C38001211B0C81720381002010BD00009A
:10166000F8B50D4604466878092804F5FE7646D894
:10167000DFE800F0647945744509054553222046AA
:1016800000F006F97FE0A988002904BFE888002857
:1016900035D13078AF78032807F07F072FD0B770A7
:1016A00039462046FFF7B9F900F08BF8002F14BF38
:1016B00002200120307066E0344F68883870397835
:1016C00002291CDA3278022A08461BD0032A16D1D6
:1016D00039B902203070002060602046FFF77EFD9F
:1016E0004FE0616888424CD0C9B22046FFF776FDD2
:1016F000397861602046FFF766FD022841D100F08D
:101700003FF940E000293CD0606003203070204663
:10171000FFF759FD0228F2D033E0E8880128EED126
:101720003178022904D00329E9D10122211D11E0D9
:101730000020A060012204F108010BE03078801E37
:101740000128DCD8B068012100B10321E160022248
:1017500004F10C01204600F058F914E068880128D3
:1017600011D1012107E03078801E0128C7D8688890
:10177000012808D10021B269B1602946936820464A
:10178000984700F01EF80020F2BD0000DB1F00208B
:1017900038B5044604F5FE720D46107803280CD1C6
:1017A0002979022909DA92699368294620469847DF
:1017B000E88820B900F005F801E000F0E1F8002029
:1017C00032BD204600F043B970B50D460446287876
:1017D000297900F06000202804F5FE7602D100F09F
:1017E00051F84DE06A78002A01F07F0026D0012AE6
:1017F0000FD0032A44D13078022810D003283DD1DD
:10180000688828B900291EBF80292046FFF7DCF828
:101810000FE03278022A02D0032A04D02EE00029F9
:101820002ED0802911E06A8852BB20B12046FFF7F4
:10183000D8F800F027F8FFF7C4FF21E03278022A39
:1018400002D0032A06D019E0002819D02046FFF75D
:10185000BBF815E004EB00100A064CBF00F11405BC
:1018600000F582752046FFF7C9F800B10120286015
:1018700002222946204600F0C8F801E000F080F876
:10188000002070BDB26993682946204618470000C1
:1018900038B50D4604466888010A012904F504722A
:1018A00008D0022920D003292BD0062955D007299A
:1018B0005AD062E01268207C136869469847BDF8E8
:1018C000001000291CBFE98800290CD0BDF80020B9
:1018D0008A4288BF0A46ADF800200146BDF80020C4
:1018E000204600F092F831BD207C516800286846FF
:1018F00004D1896A884702214170E0E7C96A8847B4
:10190000F9E7C0B2052838D8DFE800F003090F1561
:101910001B211268207C536869469847CFE71268FC
:10192000207C936869469847C9E71268207CD36891
:1019300069469847C3E71268207C1369694698474F
:10194000BDE71268207C536969469847B7E712687B
:10195000207C936969469847B1E7207C68B9516853
:101960004A6B68469047AAE7207C30B951680A6BF9
:101970006846904707224270A1E700F001F831BDA8
:101980002946204613E00A7802704A784270CB78E4
:101990008A7802EB032242804B790A7902EB032218
:1019A00082808A79C97902EB0122C280704710B522
:1019B00004468021FFF708F82046BDE810400021CA
:1019C000FFF702B8002800D1704730B50346002465
:1019D00000E0641C13F8015B002DFAD12406E40D2D
:1019E000A41C1480022312880A7003224A7008E0A3
:1019F00010F8012BDBB2CA545B1CDBB20022CA54C4
:101A00005B1C0278002AF3D130BD80B51346022258
:101A1000C0F8F4218361C36101E080B513460A4632
:101A20000021FFF707F8002002BD80B5134603220E
:101A3000C0F8F42100F584721360536001E080B5B2
:101A400013460A460021FFF702F8002002BD80B5C8
:101A50000421C0F8F41100230022E1E780B505213C
:101A6000C0F8F41100230022ECE7000080B507481D
:101A7000016841F010010160032000F09CFA002091
:101A800001F070FC01F082FC002002BD0020024049
:101A900030B52548254D264C85B0016841F0200120
:101AA0000160026802F0200204920499016841F08A
:101AB00004010160026802F00402049204990168C2
:101AC00041F010010160026802F01002049200224D
:101AD0000499016841F0080101602021006800F0CC
:101AE000080004900498284601F017FC0022032106
:101AF000204601F012FC202000F01CF8284601F0DE
:101B00003BFB032000F016F8204601F035FB4FF4B4
:101B10004050009000210220019102906946204629
:101B200001F02AFB05B030BD181002400010014042
:101B3000000C0140009001210220019103906946B0
:101B400070470000064881B0016841F00101016062
:101B5000006800F001000090009801B0704700BFDD
:101B6000141002403B4838B53B4C0FF2FC05206096
:101B700086B02F2060600020A06040F2CF7000F09F
:101B800044F810B14A2100F036F800F02DF810B1F9
:101B9000502100F030F800F031F810B1572100F07A
:101BA0002AF807B030BD2D4838B52D4C0FF2B805D6
:101BB000206086B02F2060600020A06040F2E730F7
:101BC00000F023F810B1692100F015F800F00CF8CE
:101BD00010B16F2100F00FF800F010F810B176216D
:101BE00000F009F807B030BD4FF48050029002A910
:101BF000204600F013BB2846FFF718BD00200090D8
:101C000001906946204601F007BCE0600020206199
:101C10008020A061204600F033BA81B000680D4AF0
:101C20001049904207D1086840F004000860096834
:101C300001F0040109E0094A904208D1086840F027
:101C400008000860096801F008010091009801B0DF
:101C50007047000000080040CC1E0020000C00402F
:101C60000C1F00201C100240453A5C5573657273CE
:101C70005C31373635375C446F63756D656E7473F0
:101C80005C4769744875625C4D6F746F72436F6E28
:101C9000746F726C5769746846696C7465725C4DD8
:101CA00043574676312E305C5372635C74696D2EF7
:101CB0006300000010B5094C094900222046FFF7D7
:101CC00062FA08492046FFF771FA0749204601F0F9
:101CD000A3FC2046BDE81040FFF770BAB8150020FD
:101CE0002401002010000020140100203EB53B4CD0
:101CF0003B480FF2001520604FF48070A060012077
:101D0000E060002060614FF46020E06100206060CE
:101D100002202061204601F0A7FC18B14F2128467F
:101D2000FFF784FC01200090019069460320029097
:101D3000204601F099FD18B159212846FFF776FC9D
:101D400010200221009001912046694601F08CFD8F
:101D500018B162212846FFF769FC37BD30B504464B
:101D600085B020681E49884236D11E481E4D016844
:101D700041F4007101600221006800F400700090DD
:101D80000322009819480191029201A901F0F4F987
:101D900000206860A8608020E8604FF4007028612F
:101DA0004FF4006068612020A86100201049E861BC
:101DB0002960284601F006FE20B186210FF234008A
:101DC000FFF734FC25626C6200220021122000F033
:101DD000FFF8122000F019F905B030BD8C1F00206B
:101DE0000024014018100240881E00200008014015
:101DF00008000240453A5C55736572735C313736B2
:101E000035375C446F63756D656E74735C476974D8
:101E10004875625C4D6F746F72436F6E746F726C55
:101E20005769746846696C7465725C4D43574676B1
:101E3000312E305C5372635C6164632E630000007A
:101E400080B53C483C4901604FF4E13141600021DC
:101E50008160C16001610C21416100218161C1612A
:101E600000F002FC30B1BDE804404F210FF2DC006D
:101E7000FFF7DCBB01BDF0B5044685B020682E49F4
:101E8000884255D12D482E4D01682E4E0FF2BC07C9
:101E900041F4804101604FF40071006800F480401B
:101EA000009002220098019103200490029201A95F
:101EB000284601F061F94FF4806000210190029101
:101EC0000391284601A901F057F91F4D05F11400AF
:101ED000306000207060B0608020F06000203061D1
:101EE00070612020B0610020F061304601F06AFD91
:101EF00018B17A213846FFF799FB10206663B06469
:101F000074620020F0647564802030650020706584
:101F1000B065F065306606F1440001F053FD18B17C
:101F20008A213846FFF782FB06F144002063B4663D
:101F300005B0F0BD4C1F00200038014018100240D1
:101F400000080140001E002044000240453A5C5554
:101F5000736572735C31373635375C446F63756D0A
:101F6000656E74735C4769744875625C4D6F746F1D
:101F700072436F6E746F726C5769746846696C74E3
:101F800065725C4D43574676312E305C5372635C0C
:101F900075736172742E63000901002881B006D543
:101FA0002F4A00F00F00104400F8041C01E02D4AF5
:101FB000115401B070472C4A13684FF6FF0100021C
:101FC0000B4000F4E0601843284908431060704754
:101FD00038B5254B1C68C4F30223C3F10704052C54
:101FE00028BF04241D1D072D34BF0023DB1E01253F
:101FF00005FA04F4641E2140994005FA03F35B1EC0
:102000001A401143BDE83440C6E7012200F01F0129
:10201000174BFFE78A40400943F82020704710B56E
:10202000401EB0F1807F01D3012010BD114C6060D3
:102030000F214FF0FF30FFF7AFFF0022A260072013
:102040002060002010BD04280A4904D1086840F02F
:102050000400086070470A6822F004020A607047B2
:1020600018ED00E000E400E00CED00E00000FA05EF
:1020700000E100E010E000E000F000B87047000070
:1020800038B5040001D1012032BD00F01FF818B9A5
:1020900000F018F8FFF7C1FD0AE00068C16841F0E0
:1020A0000101C160026842F0010202600020704735
:1020B00002206870211D206800F01BF90120687063
:1020C000002032BD002129702046704704F13C05F4
:1020D0006878704710B50446206801698A0715D5ED
:1020E000C1688A0712D56FF00202026101212177CF
:1020F000806910F0030F204602D001F074FE03E067
:1021000001F072FE00F087F8002020772068016956
:102110004A0715D5C1684A0712D56FF0040202615B
:1021200002212177806910F4407F204602D001F01F
:102130005AFE03E001F058FE00F06DF80020207711
:10214000206801690A0715D5C1680A0712D56FF022
:102150000802026104212177C06910F0030F2046B4
:1021600002D001F040FE03E001F03EFE00F053F823
:102170000020207720680169CA0615D5C168CA0603
:1021800012D56FF01002026108212177C06910F4A6
:10219000407F204602D001F026FE03E001F024FE3D
:1021A00000F039F80020207720680169CA0708D5B7
:1021B000C168CA0705D56FF0010202612046FFF72A
:1021C000B4F9206801690A0608D5C1680A0605D570
:1021D0006FF080020261204601F007FE206801696D
:1021E0004A0608D5C1684A0605D56FF0400202616B
:1021F000204601F0FBFD206801698A060AD5C16806
:102200008A0607D56FF0200202612046BDE8104023
:1022100001F0EDBD10BD204601F0EABD38B500F07B
:102220005DF801D1022032BD0122227002206070CF
:102230002A68DFF834019368034093600868002837
:1022400037D0102837D0202837D0302837D0402832
:102250002BD050281ED0602820D070280BD0B0F58D
:10226000805F03D0B0F5005F0CD02CE02868816857
:10227000C908C9000CE000F028F82868816841F01E
:10228000770105E000F021F82868816841F4804179
:10229000816018E000F01EF8502111E0CA6849681A
:1022A000286800F07CF860210AE000F013F8402173
:1022B00006E0002104E0102102E0202100E03021AE
:1022C000286800F07EF80FE00000CB684A68896853
:1022D00028687EE0CA684968286851E0054605F12B
:1022E0003C04207801287047012060700020207095
:1022F00032BDF0B5DFF874C01D4F03681D4C1E4D94
:102300001E4E604518BFB84208D0B0F1804F18BFCC
:10231000B04203D0A84218BFA0420DD14A6823F0B2
:1023200070031343604518BFB84207D0B0F1804F27
:102330001CBFB042A84201D0A04203D1CA6823F416
:10234000407313434A6923F08003134303606045DD
:102350008A68C2620A68826212BFB8420969016370
:1023600001214161F0BD00008800FFFF002C014009
:1023700000340140000C0040000800400004004010
:1023800010B5036A046A64086400046223F00A0357
:10239000846924F0F00444EA0214846123E010B557
:1023A000036A23F0100303628369046A23F4704311
:1023B00043EA023324F0A004836144EA0114046276
:1023C00010BD826822F07002114341F00701816064
:1023D000704710B5846824F47F442143114341EAD7
:1023E0000321816010BD1943016210BD10B5384C46
:1023F00000F048F800220121204600F08EFF012263
:102400002021344800F089FF642001F0F2FC3248BA
:102410000021418041814172017310BD70B50446B5
:10242000012C2B4D2B4E08D100F017F8012200F0A3
:1024300010F80122012100F00DF84CB900F00DF860
:10244000002200F006F82846BDE87040012216E0A0
:1024500070BD0221284600F060BF012220213046D5
:1024600000F05BBF10B5012220211A48184C00F083
:1024700054FF00F007F82046BDE81040002201217B
:1024800000F04BBF00220221204600F046BF124A56
:102490009078012882B018D00121917051780029DC
:1024A00004BF1078002803D10121D17001200AE077
:1024B000012904BF1178012904D10120D072002024
:1024C000907002E0D07802B0A8E702B07047000038
:1024D000000C014000100140BC1F00205E48532149
:1024E00001704170002070470A4601465B4800F0C9
:1024F000F7B81CB500680168CA061FD50020009017
:10250000564C206801680091406800902046009970
:1025100000F052F9606B016848685149C0F50070DD
:10252000488002B0087840F0010001F8040B4FF435
:1025300000722046BDE8104000F0F5B813BD464BD0
:10254000987040181871D970AA20587198714FF678
:10255000FF7207211846C7E710B5424C6179002980
:102560001CBF607A002822D0227802F0F002B02A44
:1025700013D0C02A06D0D02A07D0E02A0AD0F02AE9
:102580000ED011E00121AC200CE0FFF780FF01210B
:10259000AD2007E00121AE2004E00121AB2001E0E5
:1025A0000121AF20FFF7CBFF00206071607210BDEA
:1025B0002B480178CA0700D47047F8B501F0FE0136
:1025C00001700179532904BF4279532A2BD1C27972
:1025D0008379D41803F0F00C857A467A077A21497A
:1025E000BCF1A00F0AD1E4B2BC4204BFAA2EAA2DAE
:1025F00019D10120C8728B71CA71F1BD3C1934190F
:102600002C1990F80BC0E4B2644501BF047BAA2CDE
:10261000407BAA2807D101200B704A708F70CE70C2
:102620000D7148714872F1BD10B50E4C217A91B10F
:10263000E07A10B9217B062904DB00202072207388
:10264000E07210BD4FF6FF720A210348FFF74CFFFE
:10265000217B491C217310BDEC1F00204C1F002062
:10266000FC190020DC1F002038B5040001D1012036
:1026700032BD00F022F808B900F023F800F013F89A
:1026800000F024F8FFE7416100F001F832BD206856
:10269000C16841F40051C16000206860202068706A
:1026A000A87000207047242068702068C16821F459
:1026B0000051C160204600F006BA04F13805687880
:1026C0007047002129702046FFF7D5BB20680169BB
:1026D00021F4904101612068416921F02A0170478D
:1026E00030B500F138035C78202C17D109B1140003
:1026F00001D1012030BD1C78012C0FD001251D70A7
:1027000001628284C2840021596021215970002114
:1027100019700068C16841F0800101E0022030BDFD
:10272000C160002030BD38B5044604F138051346B9
:10273000A87820283ED109B1180001D1012032BD6E
:102740002878012836D001222A70A162A3850020B2
:1027500068602220A870626B0FF211209062626B99
:102760000FF24120D062626B0FF241201063002013
:10277000626B50630A462068011D606B01F065F9C9
:1027800000200090206801680091426800920022B9
:1027900000992A70C26842F48072C2602068416960
:1027A00041F0010141612068416941F0400141610E
:1027B000002032BD022032BD38B5044604F139058F
:1027C000206841692A78212A09D1090607D500F035
:1027D00017F808B101F073F9204600F00CF92068F1
:1027E00041696A78222A09D1490607D500F00EF816
:1027F00008B101F064F9204600F006F9002032BD6E
:10280000416921F080014161206B7047416921F0ED
:1028100040014161606B704738B5044625682968FE
:10282000EA686B6911F00F0007D188065DD5900644
:102830005BD52046BDE83240FAE0D80702D412F456
:10284000907F52D0C80705D5D00503D5E06B40F086
:102850000100E063480705D5D80703D5E06B40F0D9
:102860000200E063880705D5D80703D5E06B40F088
:102870000400E063080705D5D80703D5E06B40F0F6
:102880000800E063E06B00286ED0890604D590064E
:1028900044BF204600F0CCF820684069E16B0A078D
:1028A00001D440061BD5204600F0AEF820684169EF
:1028B0004A060FD5FFF7AAFF60B10FF26911416315
:1028C000606B01F015F900284ED0606B416BBDE8DC
:1028D000344008472046BDE8324001F099BA20460E
:1028E00001F096FA0020E06331BD08062CD51006F1
:1028F0002AD594F83900212836D1A168206AB1F58B
:10290000805F0DD10188C1F308016960206918B9A1
:10291000216A881C206207E0206A411C216203E0D2
:10292000411C216200786860E08C401EE08480B227
:10293000D0B92068C16821F08001C1602068C168F9
:1029400041F04001C16031BD48060DD550060BD5A0
:10295000E86820F04000E860202184F83910204623
:10296000BDE8324001F055BA31BD0000416A00684F
:102970000268930613D40020C8850868C26822F450
:102980008072C26008684269520852004261086859
:10299000426922F040024261202081F83A00084654
:1029A00001F038BA406A01F036BA000038B5446A1E
:1029B0002068406904F139052978212906D10006EB
:1029C00004D50020E084204600F015F82068406916
:1029D0006978222906D1400604D50020E0852046EA
:1029E00000F012F8E06B40F01000E0632046BDE814
:1029F000324001F00DBA0168CA6822F0C002CA6014
:102A0000202180F8391070470168CA6822F490725A
:102A1000CA6001684A69520852004A61202180F860
:102A20003A107047406A0021C185C18401F0F0B9B5
:102A300080B590F83A10222943D18268B2F5805FC0
:102A400014D1826A016941B903685968C1F3080168
:102A50001180826A911C816218E001684B6803F062
:102A6000FF031380816A4A1C82620FE0016900291A
:102A7000816A04D14A1C82620268536805E04A1CDC
:102A800082620268536803F07F030B70C18D491E98
:102A9000C18589B299B90168CA6822F02002CA606A
:102AA0000168CA6822F48072CA6001684A695208E3
:102AB00052004A61202180F83A1001F0ABF9002061
:102AC00002BD022002BD2DE9F047044664252168BD
:102AD0000A69E06822F4405202430A611926CA6872
:102AE00031480240A0680243206902436069024302
:102AF000CA604A69A06922F4407202432B484A61C5
:102B000081420ED100F09AFA074600F097FA80460B
:102B100000F094FA814600F091FA824600F08EFAB5
:102B20000DE000F083FA074600F080FA804600F0DE
:102B30007DFA814600F07AFA824600F077FA06FBC9
:102B400009F9616889007743B7FBF1F206FB08F7E2
:102B5000B7FBF1F3B9FBF1F7B7FBF5F705FB17335B
:102B60001B013233B3FBF5F3B2FBF5F203F0F003D4
:102B700003EB021306FB0AF74643B7FBF1F2B6FB81
:102B8000F1F06421B0FBF1F005FB10252D01323589
:102B90006420B5FBF0F0216800F00F00C3188B60D3
:102BA000BDE8F08700000000F3E9FFFF00380140B6
:102BB0002DE9F8430646DFF898543078C1074AD526
:102BC000686800F00C00042807D0686800F00C006A
:102BD00008280BD16868C10308D5296888033AD54D
:102BE0007068002840F0C080012069E17068B0F58D
:102BF000803F0FD038B9296821F4803129602868D6
:102C000020F4802009E0B0F5A02F296807D141F415
:102C100080212960286840F48030286006E021F493
:102C2000803129602A6822F480222A60706868B1A5
:102C300001F0F2F804462968880300F1958001F05C
:102C4000EBF8001B6528F6D3032039E101F0E4F826
:102C500004462868810340F1878001F0DDF8001BFD
:102C60006528F6D3F0E701F0D7F8001B022840F200
:102C7000AA80E9E7306970B10121396001F0CCF830
:102C800004462868810700F1DC8001F0C5F8001BCC
:102C90000228F6D9D8E7386001F0BEF80446286863
:102CA000810765D501F0B8F8001B0228F7D9CBE7FA
:102CB000086001F0B1F80446686A810777D501F031
:102CC000ABF8001B0228F7D9BEE708B9286A09E06B
:102CD0000528286A06D140F004002862286A40F0DE
:102CE000010005E0400840002862286A20F0040046
:102CF000286241F28938F06868B101F08DF88146A8
:102D0000286A810700F1AA8001F086F8A0EB09008B
:102D10004045F5D398E701F07FF88146286A81079E
:102D200040F19C8001F078F8A0EB09004045F5D314
:102D30008AE701F071F8001B022840F2A28083E7C5
:102D400001F06AF8001B022840F2B5807CE700F031
:102D5000B9F804462868810140F1B18001F05CF8BF
:102D6000001B0228F6D96FE73078DFF8F072810790
:102D70001BD5686810F00C0F09D0686800F00C00D3
:102D800008287FF477AF6868C1033FF573AF2968FF
:102D9000880703D5306901287FF426AF2968706958
:102DA00021F0F80141EAC0012960317808071DD5FA
:102DB000B069DFF8AC1200283FF47AAF01220A6054
:102DC00001F02AF80446686A81077FF54CAFDFF806
:102DD00084120868C0084FF47A72B0FBF2F20092D5
:102DE00000BF0098411E00280091F9D130784107BA
:102DF00039D5E8690024C10009D4E86940F0805061
:102E0000E8610124E86900F0805000900098DFF844
:102E10005482D8F80010C8051BD4D8F8000040F43C
:102E20008070C8F8000000F0F7FF8146D8F8001065
:102E3000C8050ED400F0F0FFA0EB09006528F5D31B
:102E400002E72868716920F0F80040EAC1002860B4
:102E5000ABE7F06801287FF438AF3FE71CB1E869C1
:102E600020F08050E861F06948B3696801F00C0116
:102E700008293FF4B9AE02287FF469AF00F022F8C8
:102E80000446286881013FF554AF306AB0F5803FB1
:102E900005D16968B06821F400310143696069684F
:102EA000306A21F474110143706A014369600120A2
:102EB00000F009F80446286881017FF541AF002041
:102EC000BDE8F2830020386600F0A6BF2DE9F84384
:102ED000654F05463868894600F00700484502D22C
:102EE00000F07AF86CD12978594C880705D56168CB
:102EF000A86821F0F001014361602878C10757D527
:102F00006868012802D121688A0303E0022803D1FE
:102F100021688A0103D453E02268910750D5616883
:102F2000890840EA8100606041F2893800F074FF4E
:102F30000646686801280BD1606800F00C00042880
:102F400036D000F069FF801B4045F5D303202DE00B
:102F5000022837D1606800F00C00082828D000F063
:102F60005BFF801B4045F5D3F0E72878410705D586
:102F70006168E86821F4E061014361602878010735
:102F800006D56068296920F4605040EAC10060609D
:102F900000F02CF862683549C2F30312895C2D4AAF
:102FA000C8401060002000F0DDF90020BDE8F28389
:102FB000386800F007008145D7D200F00DF8D4D072
:102FC0000120F3E7606810F00C0FF1D000F024FF4F
:102FD000801B4045F6D3B9E73968C90849EAC10101
:102FE0003960386800F007004845704720490A6892
:102FF00002F00C00082814D10FF28003C2F38340C2
:10300000D203185C0AD509680FF28003124AC1F393
:103010004041595CB2FBF1F14843704715494843C0
:1030200070470D4870470B48006870470948104AC0
:10303000006813681049C3F3022206E005480C4AF1
:10304000006813680C49C3F3C222895CC84070470A
:10305000001002400000002000127A0000004242EE
:10306000800442420070004000200240C43F00083B
:103070000410024000093D00044100080203040559
:10308000060708090A0B0C0D0E0F101001020000B4
:103090002DE9FC410646354D3078C10750D5A86969
:1030A0000024C10009D4A86940F08050A86101241F
:1030B000A86900F08050009000982D4F3968C8052D
:1030C00017D4386840F48070386000F0A5FE804660
:1030D0003968C8050DD400F09FFEA0EB08006528F4
:1030E000F6D303203FE000F097FEC01B404519D304
:1030F000F7E7E86910F440701EBF716801F4407191
:10310000884212D01B49E86901220A6020F440700D
:1031100000220A60E861C00707D500F07DFE07467F
:1031200041F28938E8698107DDD5E969706821F4E1
:1031300040710143E9611CB1A86920F08050A86189
:103140003178880705D52A68B06822F440420243E6
:103150002A603078C10605D52968706921F480019C
:10316000014329600020BDE8F68100000410024000
:1031700000700040400442422DE9F84F83460F465C
:10318000002080466849694A694B4FF00F094FF0AB
:10319000010A3C680AFA08F606EA040EB64540F051
:1031A000AE807C683CB3012C1AD0022C1DD0032CBD
:1031B0002ED0112C16D0122C1AD05E4DAC421CBF52
:1031C0005D4DAC4217D05D4DAC421CBF5C4DAC4276
:1031D00011D05C4DAC421CBF5B4DAC420BD018E033
:1031E000F86816E0F868001D13E0F868083010E091
:1031F000F8680C300DE0B86808B9042009E001282F
:1032000019BF0820CBF814600820CBF8106000E04C
:103210000020BEF5807F03D2DC464FEA880404E03C
:10322000A8F108040BF1040CA400DCF8005009FA22
:1032300004F6B54300FA04F42C43CCF800407C6853
:10324000E4005CD51C6844F001041C604FEA980C53
:103250001D6805F001050095009C52F82C604FEAAE
:10326000880404F00C0409FA04F526EA0505374E33
:10327000B34508BF002618D0354EB34508BF012618
:1032800013D0344EB34508BF02260ED0324EB3459C
:1032900008BF032609D0314EB34508BF042604D029
:1032A0002F4EB3450CBF0526062606FA04F42C4320
:1032B00042F82C406FEA0E067C68E50304D50D68E1
:1032C0004EEA05050D6002E00C6834400C607C6835
:1032D000A5034C684CBF4EEA040434404C607C6843
:1032E000E5028C684CBF4EEA040434408C607C6874
:1032F000A502CC684CBF4EEA04043440CC6008F10F
:103300000108B8F10F0F7FF644AFBDE8F18F806878
:10331000084018BF0120C0B2704781B002B909044B
:10332000016101B070470000000401400800014045
:1033300018100240000011100000121000002110AF
:10334000000022100000311000003210000801407F
:10335000000C014000100140001401400018014021
:10336000001C014010B508490A6804464FF47A7001
:10337000B2FBF0F0FEF753FE002221464FF0FF3083
:10338000FEF726FE002010BD0000002080B520487A
:10339000016841F001010160006800F00100009047
:1033A00000980320FEF707FE002200216FF00B00BB
:1033B000FEF70EFE002200216FF00A00FEF708FE65
:1033C000002200216FF00900FEF702FE002200211A
:1033D0006FF00400FEF7FCFD002200216FF00300F7
:1033E000FEF7F6FD002200216FF00100FEF7F0FD70
:1033F000002200214FF0FF30FEF7EAFD054801688A
:1034000021F0E0610160026842F00072026001BDDB
:10341000181002400400014030B500F13C031A7856
:10342000012A01D1022030BD01241C7002225A70F1
:103430000268546824F070045460046865680A687F
:10344000154365600268946824F080049460026803
:1034500094684868044394600120587000201870F4
:1034600030BD00007CB506460025307C30B94FF4F5
:10347000007300F031F84FF4007303E0402300F0D4
:103480002BF84023022201213046FDF780FA082361
:10349000032282213046FDF77AFA4FF40770FDF7D8
:1034A000E7FA040006F5067008BF0125046011D094
:1034B00040680168884704F501700561456102684C
:1034C000307C00280CBF4FF40073402301213046AC
:1034D000FDF7BDFA284676BD022281213046FDF770
:1034E00056BA10B504468121FDF761FA0121204644
:1034F000FDF75DFA82212046FDF759FA04F50674BE
:10350000206838B16168486880472068FDF7BCFAD8
:1035100000202060002010BDF8B50D46044604F5DB
:10352000067329781E6811F060001ED0202824D16F
:10353000EA88A2B16878090606D55B689F683146BB
:10354000B847EA88314615E006F500710870E8884A
:1035500048703146EA882046FEF767FA0DE05B685E
:1035600068789C682946A04707E068780A2804D153
:10357000012224492046FEF748FA0020F2BDD0F887
:10358000180220B10021C0F8141200207047022058
:10359000704770B500F50674256805F50176FDF7EE
:1035A00063FAB060206838B162683068D36805F5A6
:1035B00003719847002070BD022070BD10B500F562
:1035C000067043680168002B1EBF01F50074207867
:1035D000FF2804D062789B689847FF202070002065
:1035E00010BD4321018008487047432101800748EE
:1035F000704743210180064870470A210180054831
:1036000070470000DA1F00208C00002048000020D6
:10361000D0000020040000200246022011B1C2F8B0
:103620001C1200207047D0F8180200F502700160EB
:10363000826000207047D0F81802C0F80412002001
:10364000704780B5D0F8181261B1D1F80422017C1E
:1036500000290CBF4FF4007340230121FDF7F7F957
:10366000002002BD022002BDF8B504460027002656
:10367000002C7AD004F12405686820B9AE60287067
:103680002046FEF76BFB204600F07AF96968CA060F
:103690006CD401006AD1696821F4885141F00201BB
:1036A00069602368DFF8BC12E269D4F804C08B4279
:1036B00004BFB2F5402F4FF40022E16842EA0C0249
:1036C000D4F808C0BCF5807F14BFBCF1010F4FF4E3
:1036D0008077D4F814C0BCF1010F42EA41020FD147
:1036E00031B9A169491E490341F400610F4307E064
:1036F000696841F020016960A96841F00101A96091
:10370000596821F469410F435F602368DFF858125C
:103710009F680F4017439F60A168B1F5807F18BF75
:10372000012902D12669761E36052168CB6A23F469
:1037300070031E43CE622468DFF83012A3680B408A
:10374000934208D10021A960696821F0020141F08B
:1037500001016960F2BD686820F0020040F01000CD
:103760006860A86840F00100A86003E0686840F065
:10377000100068600120F2BD10B504462168486859
:10378000820622D50A6890071FD5A06AC20603D414
:10379000A06A40F40070A06200F05AF804BFE0682C
:1037A00000280BD14A6822F020024A60A06A20F467
:1037B0008070A062A06AC10400F050F8204600F0BA
:1037C00031FB21686FF0120008602168486802062A
:1037D0002BD50A68500728D5A06AC20603D4A06A70
:1037E00040F40050A062886800F4E040B0F5E04F7B
:1037F00008D04868420511D400F02AF804BFE068F8
:1038000000280BD14A6822F080024A60A06A20F4A6
:103810008050A062A06AC10500F020F8204600F0A8
:1038200003FB21686FF00C000860206841684A06BD
:103830000DD50068C1070AD5A06A40F48030A062A7
:10384000204600F0F2FA21686FF00100086010BD18
:10385000886800F46020B0F5602F704703D4A06A38
:1038600040F00100A0627047F8B50A46002100F15F
:10387000240300911C78012C01D10220F2BD012506
:103880001D701F27546815680668072C08D2641E2F
:1038900004EB8404D6F834C000F05EF8756312E0DF
:1038A0000D2C08D2E41F04EB8404D6F830C000F0DD
:1038B00053F8356307E00D3C04EB8404D6F82CC0C4
:1038C00000F04AF8F56207271668946805680A2E22
:1038D00008D30A3E06EB4606D5F80CC000F036F8D1
:1038E000EC6006E006EB4606D5F810C000F02EF8B6
:1038F0002C611468102C18BF112C23D100681D4CAA
:10390000A0421AD11C48046825021BD4056845F45E
:10391000000505601068102814D1154C174825685B
:10392000B5FBF0F00A2250430090009800281EBF1B
:10393000009A521E0092F8D104E00121586840F02C
:1039400020005860002018700846F2BDB7402CEAED
:103950000707B4403C437047A7402CEA0707A5403F
:103960003D437047003C0140FDF7E1FFFE0E1FFFA5
:1039700000000020002401400824014040420F00C4
:1039800038B5044620688168CA0719D58168490896
:103990004900816000F040FA054620688168C80748
:1039A0000ED500F039FA401B0328F6D3A06A40F088
:1039B0001000A062E06A40F00100E062012032BD28
:1039C000002032BD30B508B9012030BD0268DFF8F3
:1039D000B0138A4200F1280306D2DFF8A81300F0E2
:1039E0002DF8DFF8A41305E0DFF8A01300F026F8A7
:1039F000DFF89C135961022180F821101468416896
:103A00006FF30D140C4381680C43C1680C430169CA
:103A10000C4341690C4381690C43C1690C43146038
:103A20000021196059609960D9601961012180F8FD
:103A30002110002180F82010002030BD8C181425A2
:103A4000B4FBF5F4A4009C617047F8B5044600256A
:103A500094F82000012801D10220F2BD94F8210041
:103A60000126012884F8206024D1022684F82160F0
:103A700004F12C06F560206807687F087F00076066
:103A8000204600F09FF92168306820B10A6842F0B2
:103A90000E020A6008E0086820F004000860206850
:103AA000016841F00A0101602068026842F00102E9
:103AB000026002E084F8205002252846F2BD10B5CD
:103AC00001680A6822F00E020A6000F13C020B68ED
:103AD0005B085B000B60012451688C4011684C60EE
:103AE0000122002180F8212080F82010002010BD44
:103AF000F8B590F821200024022A00F1340103D007
:103B00000420486001245FE00268DFF888621368DF
:103B100023F00E0313604FF48077026815686D0878
:103B20006D0015604FF480320368B3424FF4805546
:103B300019D9DFF84C62B34208BF012210D0DFF878
:103B40005862B34208BF10220AD0DFF85062B34275
:103B500008BF3A4604D0DFF84862B34208BF2A469D
:103B6000DFF8403227E0DFF840C263451CD0DFF8C1
:103B70003CC263451AD0DFF838C2634518D0DFF87D
:103B80003472BB420EBF2A46DFF82C52AB4210D033
:103B9000DFF82852AB4208BF4FF4801209D0B3427D
:103BA00007D14FF0807204E0012202E0102200E011
:103BB0003A46DFF80C321A60012280F8212080F8A2
:103BC0002040096801B188472046F2BD2DE9F84F31
:103BD00000F1280204275169734BD1F800E0046812
:103BE0006C4925689669DFF8BC81DFF8B491DFF88D
:103BF000ACA1DFF8A4B1DFF888C1B7401EEA070F17
:103C00004AD06F0748D52568AD0603D4256825F04E
:103C1000040525604FF4802407688F424FF48045E7
:103C20004FF4806611D9674508BF04240AD05F4568
:103C300008BF402406D0574508BF344602D04F4540
:103C400008BF2C46C8F8004020E09F4217D0574BD1
:103C50009F4216D0564B9F4215D0564B9F420EBFE7
:103C60002C46554B9F420FD0544B9F4208BF4FF4F8
:103C7000800409D08F4207D14FF0806404E004240F
:103C800002E0402400E034464D490C6051680029B0
:103C900074D0BDE8F44F08470227B7401EEA070F6B
:103CA0004FD0AF074DD52568AD0606D4256825F061
:103CB0000A052560012480F821404FF4003407688C
:103CC0008F424FF400554FF4007611D9674508BF75
:103CD00002240AD05F4508BF202406D0574508BFFC
:103CE000344602D04F4508BF2C46C8F8004020E0BB
:103CF0009F4217D02D4B9F4216D02D4B9F4215D07F
:103D00002C4B9F420EBF2C462B4B9F420FD02B4B70
:103D10009F4208BF4FF4001409D08F4207D14FF0E3
:103D2000007404E0022402E0202400E03446244928
:103D30000C60002180F820101168F9B1BDE8F44F43
:103D40000847082101FA06F61EEA060F16D02907D1
:103D500014D5216821F00E012160012391698B4067
:103D600051694B6001230021136180F8201080F815
:103D70002130916811B1BDE8F44F0847BDE8F18FDB
:103D800008040240F8FFFDBF00000240F8FBFDBF41
:103D900000040240800002401C0402403004024043
:103DA0004404024004040240080002401C00024097
:103DB0003000024044000240580002406C000240C3
:103DC0000400024038B5046C0125A540C46B656051
:103DD000046863604068102802D1A260E16031BDD0
:103DE000A160E26031BD704770477047704770470F
:103DF000704731B500F010F8009D15F1010F044631
:103E000018BF6D1C00F008F8001BA842FAD331BDA2
:103E1000704770477047704701480068704700BF9F
:103E2000F81F00207047000070477047122008807C
:103E30000F487047042008800E48704710B500F006
:103E400013F80FF2500004E010B500F00DF80FF277
:103E50005C002146FDF7B6FD204610BD10B500F010
:103E600003F80FF25C00F4E70A46034C70470000C9
:103E70004001002054010020001C002010B5FFF775
:103E8000F3FF0FF24C00E4E710B5FFF7EDFF0FF280
:103E90004C00DEE753544D3332205669727475611D
:103EA0006C20436F6D506F727400000053544D6965
:103EB00063726F656C656374726F6E696373000023
:103EC00030303030303030303030314100000000A0
:103ED00043444320436F6E666967000043444320B8
:103EE000496E746572666163650000007047FEE7A5
:103EF000FEE7FEE7FEE770477047704780B500F0C9
:103F000033F8BDE80140FEF7B7B80F48FFF75EBED3
:103F10000E48FFF75BBE0E48FFF758BE0D48FFF78F
:103F20002BBC0D48FCF768B90C48FEF7D3B810B5A8
:103F30000B4C2046FEF7DDFA2046BDE81040FEF7A8
:103F40006BBC0848FEF7C6B8881E0020441E00203F
:103F5000001E00208C1F002058110020CC1E0020C5
:103F60004C1F00200C1F002002480168491C016002
:103F7000704700BFF81F00200E49086840F001009C
:103F800008604A680C4802404A600B680B480340CE
:103F90000B60086820F4802008604FF41F004A6816
:103FA00022F4FE024A6088604FF000600449086015
:103FB00070470000001002400000FFF8FFFFF6FE0F
:103FC00008ED00E000000000000000000102030412
:103FD0000607080938B50E4C0E4D002205F50061A4
:103FE0002046FFF720FB29462046FFF724FB002050
:103FF00032BD002070470020704710B50146044CC8
:104000002046FFF718FB2046FFF71BFB002010BDE2
:10401000B81500205801002019E050F8042BD307F0
:1040200044BFA9F101039A18091F0023042942F88B
:10403000043BF9D25FEA817C134604D54FF0000CB3
:10404000A2F800C09B1CC90744BF0021197050F89A
:10405000041B0029E1D1704710B507497944183194
:10406000064C7C44163404E00A68081D1144884755
:104070000146A142F8D110BD080000002400000054
:1040800099FFFFFFA41E000058010020000000005F
:1040900053C7FFFF48010000980100000000002006
:1040A00000F00DF8002801D0FFF7D6FFAFF3008035
:1040B0000020AFF30080FDF77BF900F002F801204B
:1040C000704700F001B800000746384600F002F8DB
:1040D000FBE7000080B5AFF30080024A1100182012
:1040E000ABBEFBE7260002000148804701480047BD
:1040F000793F0008F9400008AFF30080AFF300807B
:10410000FFF7CEFF0000000001020304FFF7FEBF2F
:10411000FFF7FEBFFFF7FEBFFFF7FEBFFFF7FEBFD3
:10412000FFF7FEBFFFF7FEBFFFF7FEBFFFF7FEBFC3
:10413000FFF7FEBFFFF7FEBFFFF7FEBFFFF7FEBFB3
:10414000FFF7FEBFFFF7FEBFFFF7FEBFFFF7FEBFA3
:10415000FFF7FEBFFFF7FEBFFFF7FEBFFFF7FEBF93
:10416000FFF7FEBFFFF7FEBFFFF7FEBFFFF7FEBF83
:10417000FFF7FEBFFFF7FEBFFFF7FEBFFFF7FEBF73
:10418000FFF7FEBFFFF7FEBFFFF7FEBFFFF7FEBF63
:10419000FFF7FEBFFFF7FEBFFFF7FEBFFFF7FEBF53
:1041A000FFF7FEBFFFF7FEBFFFF7FEBFFFF7FEBF43
:1041B000FFF7FEBFFFF7FEBFFFF7FEBFFFF7FEBF33
:1041C000FFF7FEBFFFF7FEBFFFF7FEBFFFF7FEBF23
:1041D000FFF7FEBFFFF7FEBFFFF7FEBF100B00A209
:1041E0004A040A060002000000400105100365347D
:1041F0000008E304100319350008000112BD08127D
:104200007F04529310610112EB1012E30412F304C5
:1042100012FB04100D09024300020100C032090420
:10422000000001020B101E052400100105240100EE
:104230000104240202052406000107058203080088
:104240001009040100020A4E1002070501027B203A
:104250000107058107F22800442240072281072038
:104260000100090744F2130444F207FF4413D53F49
:10427000D8110412F70412FB0410032D3E00083578
:1042800004124904123D04125D04127D04128904D3
:1042900012124310060202004083044057791702AD
:0842A0000345000204030904B8
:04000005080040F9B6
:00000001FF
